{"abi":[{"type":"constructor","inputs":[{"name":"_feeRecipient","type":"address","internalType":"address"}],"stateMutability":"nonpayable"},{"type":"function","name":"bounties","inputs":[{"name":"","type":"uint256","internalType":"uint256"}],"outputs":[{"name":"agent","type":"address","internalType":"address"},{"name":"claimer","type":"address","internalType":"address"},{"name":"token","type":"address","internalType":"address"},{"name":"amount","type":"uint256","internalType":"uint256"},{"name":"deadline","type":"uint256","internalType":"uint256"},{"name":"status","type":"uint8","internalType":"enum MeatboardEscrow.Status"},{"name":"metadataURI","type":"string","internalType":"string"}],"stateMutability":"view"},{"type":"function","name":"bountyCount","inputs":[],"outputs":[{"name":"","type":"uint256","internalType":"uint256"}],"stateMutability":"view"},{"type":"function","name":"cancelBounty","inputs":[{"name":"id","type":"uint256","internalType":"uint256"}],"outputs":[],"stateMutability":"nonpayable"},{"type":"function","name":"claimBounty","inputs":[{"name":"id","type":"uint256","internalType":"uint256"}],"outputs":[],"stateMutability":"nonpayable"},{"type":"function","name":"createBounty","inputs":[{"name":"token","type":"address","internalType":"address"},{"name":"amount","type":"uint256","internalType":"uint256"},{"name":"deadline","type":"uint256","internalType":"uint256"},{"name":"metadataURI","type":"string","internalType":"string"}],"outputs":[{"name":"id","type":"uint256","internalType":"uint256"}],"stateMutability":"nonpayable"},{"type":"function","name":"feeBps","inputs":[],"outputs":[{"name":"","type":"uint256","internalType":"uint256"}],"stateMutability":"view"},{"type":"function","name":"feeRecipient","inputs":[],"outputs":[{"name":"","type":"address","internalType":"address"}],"stateMutability":"view"},{"type":"function","name":"owner","inputs":[],"outputs":[{"name":"","type":"address","internalType":"address"}],"stateMutability":"view"},{"type":"function","name":"releaseBounty","inputs":[{"name":"id","type":"uint256","internalType":"uint256"}],"outputs":[],"stateMutability":"nonpayable"},{"type":"function","name":"setFeeBps","inputs":[{"name":"_feeBps","type":"uint256","internalType":"uint256"}],"outputs":[],"stateMutability":"nonpayable"},{"type":"function","name":"setFeeRecipient","inputs":[{"name":"_feeRecipient","type":"address","internalType":"address"}],"outputs":[],"stateMutability":"nonpayable"},{"type":"function","name":"submitProof","inputs":[{"name":"id","type":"uint256","internalType":"uint256"},{"name":"proofURI","type":"string","internalType":"string"}],"outputs":[],"stateMutability":"nonpayable"},{"type":"event","name":"BountyCancelled","inputs":[{"name":"id","type":"uint256","indexed":true,"internalType":"uint256"}],"anonymous":false},{"type":"event","name":"BountyClaimed","inputs":[{"name":"id","type":"uint256","indexed":true,"internalType":"uint256"},{"name":"claimer","type":"address","indexed":true,"internalType":"address"}],"anonymous":false},{"type":"event","name":"BountyCreated","inputs":[{"name":"id","type":"uint256","indexed":true,"internalType":"uint256"},{"name":"agent","type":"address","indexed":true,"internalType":"address"},{"name":"token","type":"address","indexed":false,"internalType":"address"},{"name":"amount","type":"uint256","indexed":false,"internalType":"uint256"},{"name":"deadline","type":"uint256","indexed":false,"internalType":"uint256"},{"name":"metadataURI","type":"string","indexed":false,"internalType":"string"}],"anonymous":false},{"type":"event","name":"BountyPaid","inputs":[{"name":"id","type":"uint256","indexed":true,"internalType":"uint256"},{"name":"claimer","type":"address","indexed":true,"internalType":"address"},{"name":"payout","type":"uint256","indexed":false,"internalType":"uint256"},{"name":"fee","type":"uint256","indexed":false,"internalType":"uint256"}],"anonymous":false},{"type":"event","name":"BountySubmitted","inputs":[{"name":"id","type":"uint256","indexed":true,"internalType":"uint256"},{"name":"proofURI","type":"string","indexed":false,"internalType":"string"}],"anonymous":false},{"type":"error","name":"SafeERC20FailedOperation","inputs":[{"name":"token","type":"address","internalType":"address"}]}],"bytecode":{"object":"0x60806040526101f460025534801562000016575f80fd5b50604051620022393803806200223983398181016040528101906200003c919062000128565b3360045f6101000a81548173ffffffffffffffffffffffffffffffffffffffff021916908373ffffffffffffffffffffffffffffffffffffffff1602179055508060035f6101000a81548173ffffffffffffffffffffffffffffffffffffffff021916908373ffffffffffffffffffffffffffffffffffffffff1602179055505062000158565b5f80fd5b5f73ffffffffffffffffffffffffffffffffffffffff82169050919050565b5f620000f282620000c7565b9050919050565b6200010481620000e6565b81146200010f575f80fd5b50565b5f815190506200012281620000f9565b92915050565b5f6020828403121562000140576200013f620000c3565b5b5f6200014f8482850162000112565b91505092915050565b6120d380620001665f395ff3fe608060405234801561000f575f80fd5b50600436106100b2575f3560e01c80635ecb8f0c1161006f5780635ecb8f0c1461017857806372c27b62146101945780638da5cb5b146101b0578063dc2f8744146101ce578063e5e5dff114610204578063e74b981b14610220576100b2565b8063182797c9146100b657806324a9d853146100e65780632af00510146101045780633e362c961461012057806344021ad71461013e578063469048401461015a575b5f80fd5b6100d060048036038101906100cb91906113bb565b61023c565b6040516100dd919061144e565b60405180910390f35b6100ee61056c565b6040516100fb919061144e565b60405180910390f35b61011e60048036038101906101199190611467565b610572565b005b6101286106fa565b604051610135919061144e565b60405180910390f35b610158600480360381019061015391906114c4565b6106ff565b005b610162610885565b60405161016f91906114fe565b60405180910390f35b610192600480360381019061018d91906114c4565b6108aa565b005b6101ae60048036038101906101a991906114c4565b610b89565b005b6101b8610c67565b6040516101c591906114fe565b60405180910390f35b6101e860048036038101906101e391906114c4565b610c8c565b6040516101fb9796959493929190611614565b60405180910390f35b61021e600480360381019061021991906114c4565b610db9565b005b61023a60048036038101906102359190611688565b61100a565b005b5f80851161027f576040517f08c379a0000000000000000000000000000000000000000000000000000000008152600401610276906116fd565b60405180910390fd5b4284116102c1576040517f08c379a00000000000000000000000000000000000000000000000000000000081526004016102b890611765565b60405180910390fd5b5f808154809291906102d2906117b0565b9190505590506040518060e001604052803373ffffffffffffffffffffffffffffffffffffffff1681526020015f73ffffffffffffffffffffffffffffffffffffffff1681526020018773ffffffffffffffffffffffffffffffffffffffff1681526020018681526020018581526020015f600481111561035657610355611517565b5b815260200184848080601f0160208091040260200160405190810160405280939291908181526020018383808284375f81840152601f19601f8201169050808301925050505050505081525060015f8381526020019081526020015f205f820151815f015f6101000a81548173ffffffffffffffffffffffffffffffffffffffff021916908373ffffffffffffffffffffffffffffffffffffffff1602179055506020820151816001015f6101000a81548173ffffffffffffffffffffffffffffffffffffffff021916908373ffffffffffffffffffffffffffffffffffffffff1602179055506040820151816002015f6101000a81548173ffffffffffffffffffffffffffffffffffffffff021916908373ffffffffffffffffffffffffffffffffffffffff160217905550606082015181600301556080820151816004015560a0820151816005015f6101000a81548160ff021916908360048111156104c1576104c0611517565b5b021790555060c08201518160060190816104db9190611a1e565b5090505061050c3330878973ffffffffffffffffffffffffffffffffffffffff1661114a909392919063ffffffff16565b3373ffffffffffffffffffffffffffffffffffffffff16817fc6a319bb53a305abad82b279e58a5c6676e1951fcb2ff28aea7ec2f49acad65f888888888860405161055b959493929190611b27565b60405180910390a395945050505050565b60025481565b5f60015f8581526020019081526020015f2090506001600481111561059a57610599611517565b5b816005015f9054906101000a900460ff1660048111156105bd576105bc611517565b5b146105fd576040517f08c379a00000000000000000000000000000000000000000000000000000000081526004016105f490611bbd565b60405180910390fd5b806001015f9054906101000a900473ffffffffffffffffffffffffffffffffffffffff1673ffffffffffffffffffffffffffffffffffffffff163373ffffffffffffffffffffffffffffffffffffffff161461068e576040517f08c379a000000000000000000000000000000000000000000000000000000000815260040161068590611c25565b60405180910390fd5b6002816005015f6101000a81548160ff021916908360048111156106b5576106b4611517565b5b0217905550837f2195f567a95bef162b596637212e7ece92a3d934b5924ef48b543fe42bdfa89c84846040516106ec929190611c43565b60405180910390a250505050565b5f5481565b5f60015f8381526020019081526020015f2090505f600481111561072657610725611517565b5b816005015f9054906101000a900460ff16600481111561074957610748611517565b5b14610789576040517f08c379a000000000000000000000000000000000000000000000000000000000815260040161078090611caf565b60405180910390fd5b806004015442106107cf576040517f08c379a00000000000000000000000000000000000000000000000000000000081526004016107c690611d17565b60405180910390fd5b6001816005015f6101000a81548160ff021916908360048111156107f6576107f5611517565b5b021790555033816001015f6101000a81548173ffffffffffffffffffffffffffffffffffffffff021916908373ffffffffffffffffffffffffffffffffffffffff1602179055503373ffffffffffffffffffffffffffffffffffffffff16827fbf59c0d059a57ebf273b4b1643599fc4b48cf5effdd82113a740ed64d262ec9360405160405180910390a35050565b60035f9054906101000a900473ffffffffffffffffffffffffffffffffffffffff1681565b5f60015f8381526020019081526020015f209050600260048111156108d2576108d1611517565b5b816005015f9054906101000a900460ff1660048111156108f5576108f4611517565b5b14610935576040517f08c379a000000000000000000000000000000000000000000000000000000000815260040161092c90611d7f565b60405180910390fd5b805f015f9054906101000a900473ffffffffffffffffffffffffffffffffffffffff1673ffffffffffffffffffffffffffffffffffffffff163373ffffffffffffffffffffffffffffffffffffffff16146109c5576040517f08c379a00000000000000000000000000000000000000000000000000000000081526004016109bc90611de7565b60405180910390fd5b6003816005015f6101000a81548160ff021916908360048111156109ec576109eb611517565b5b02179055505f6127106002548360030154610a079190611e05565b610a119190611e73565b90505f818360030154610a249190611ea3565b9050610a97836001015f9054906101000a900473ffffffffffffffffffffffffffffffffffffffff1682856002015f9054906101000a900473ffffffffffffffffffffffffffffffffffffffff1673ffffffffffffffffffffffffffffffffffffffff1661119f9092919063ffffffff16565b5f821115610b0f57610b0e60035f9054906101000a900473ffffffffffffffffffffffffffffffffffffffff1683856002015f9054906101000a900473ffffffffffffffffffffffffffffffffffffffff1673ffffffffffffffffffffffffffffffffffffffff1661119f9092919063ffffffff16565b5b826001015f9054906101000a900473ffffffffffffffffffffffffffffffffffffffff1673ffffffffffffffffffffffffffffffffffffffff16847f65684f8147438488035875c7644bc356c9863bf5003f73468551fa6d782f713e8385604051610b7b929190611ed6565b60405180910390a350505050565b60045f9054906101000a900473ffffffffffffffffffffffffffffffffffffffff1673ffffffffffffffffffffffffffffffffffffffff163373ffffffffffffffffffffffffffffffffffffffff1614610c18576040517f08c379a0000000000000000000000000000000000000000000000000000000008152600401610c0f90611f47565b60405180910390fd5b612710811115610c5d576040517f08c379a0000000000000000000000000000000000000000000000000000000008152600401610c5490611faf565b60405180910390fd5b8060028190555050565b60045f9054906101000a900473ffffffffffffffffffffffffffffffffffffffff1681565b6001602052805f5260405f205f91509050805f015f9054906101000a900473ffffffffffffffffffffffffffffffffffffffff1690806001015f9054906101000a900473ffffffffffffffffffffffffffffffffffffffff1690806002015f9054906101000a900473ffffffffffffffffffffffffffffffffffffffff1690806003015490806004015490806005015f9054906101000a900460ff1690806006018054610d3890611851565b80601f0160208091040260200160405190810160405280929190818152602001828054610d6490611851565b8015610daf5780601f10610d8657610100808354040283529160200191610daf565b820191905f5260205f20905b815481529060010190602001808311610d9257829003601f168201915b5050505050905087565b5f60015f8381526020019081526020015f2090505f6004811115610de057610ddf611517565b5b816005015f9054906101000a900460ff166004811115610e0357610e02611517565b5b148015610e5d5750805f015f9054906101000a900473ffffffffffffffffffffffffffffffffffffffff1673ffffffffffffffffffffffffffffffffffffffff163373ffffffffffffffffffffffffffffffffffffffff16145b80610eab57505f6004811115610e7657610e75611517565b5b816005015f9054906101000a900460ff166004811115610e9957610e98611517565b5b148015610eaa575080600401544210155b5b80610efa575060016004811115610ec557610ec4611517565b5b816005015f9054906101000a900460ff166004811115610ee857610ee7611517565b5b148015610ef9575080600401544210155b5b610f39576040517f08c379a0000000000000000000000000000000000000000000000000000000008152600401610f3090612017565b60405180910390fd5b6004816005015f6101000a81548160ff02191690836004811115610f6057610f5f611517565b5b0217905550610fd9815f015f9054906101000a900473ffffffffffffffffffffffffffffffffffffffff168260030154836002015f9054906101000a900473ffffffffffffffffffffffffffffffffffffffff1673ffffffffffffffffffffffffffffffffffffffff1661119f9092919063ffffffff16565b817f92717314c0b0f9d632e1d46a0b8437778ff9daee1db8ec295f2bc0b57c4bcaac60405160405180910390a25050565b60045f9054906101000a900473ffffffffffffffffffffffffffffffffffffffff1673ffffffffffffffffffffffffffffffffffffffff163373ffffffffffffffffffffffffffffffffffffffff1614611099576040517f08c379a000000000000000000000000000000000000000000000000000000000815260040161109090611f47565b60405180910390fd5b5f73ffffffffffffffffffffffffffffffffffffffff168173ffffffffffffffffffffffffffffffffffffffff1603611107576040517f08c379a00000000000000000000000000000000000000000000000000000000081526004016110fe9061207f565b60405180910390fd5b8060035f6101000a81548173ffffffffffffffffffffffffffffffffffffffff021916908373ffffffffffffffffffffffffffffffffffffffff16021790555050565b6111588484848460016111f2565b61119957836040517f5274afe700000000000000000000000000000000000000000000000000000000815260040161119091906114fe565b60405180910390fd5b50505050565b6111ac8383836001611263565b6111ed57826040517f5274afe70000000000000000000000000000000000000000000000000000000081526004016111e491906114fe565b60405180910390fd5b505050565b5f806323b872dd60e01b9050604051815f525f1960601c87166004525f1960601c86166024528460445260205f60645f808c5af1925060015f51148316611250578383151615611244573d5f823e3d81fd5b5f883b113d1516831692505b806040525f606052505095945050505050565b5f8063a9059cbb60e01b9050604051815f525f1960601c86166004528460245260205f60445f808b5af1925060015f511483166112b75783831516156112ab573d5f823e3d81fd5b5f873b113d1516831692505b806040525050949350505050565b5f80fd5b5f80fd5b5f73ffffffffffffffffffffffffffffffffffffffff82169050919050565b5f6112f6826112cd565b9050919050565b611306816112ec565b8114611310575f80fd5b50565b5f81359050611321816112fd565b92915050565b5f819050919050565b61133981611327565b8114611343575f80fd5b50565b5f8135905061135481611330565b92915050565b5f80fd5b5f80fd5b5f80fd5b5f8083601f84011261137b5761137a61135a565b5b8235905067ffffffffffffffff8111156113985761139761135e565b5b6020830191508360018202830111156113b4576113b3611362565b5b9250929050565b5f805f805f608086880312156113d4576113d36112c5565b5b5f6113e188828901611313565b95505060206113f288828901611346565b945050604061140388828901611346565b935050606086013567ffffffffffffffff811115611424576114236112c9565b5b61143088828901611366565b92509250509295509295909350565b61144881611327565b82525050565b5f6020820190506114615f83018461143f565b92915050565b5f805f6040848603121561147e5761147d6112c5565b5b5f61148b86828701611346565b935050602084013567ffffffffffffffff8111156114ac576114ab6112c9565b5b6114b886828701611366565b92509250509250925092565b5f602082840312156114d9576114d86112c5565b5b5f6114e684828501611346565b91505092915050565b6114f8816112ec565b82525050565b5f6020820190506115115f8301846114ef565b92915050565b7f4e487b71000000000000000000000000000000000000000000000000000000005f52602160045260245ffd5b6005811061155557611554611517565b5b50565b5f81905061156582611544565b919050565b5f61157482611558565b9050919050565b6115848161156a565b82525050565b5f81519050919050565b5f82825260208201905092915050565b5f5b838110156115c15780820151818401526020810190506115a6565b5f8484015250505050565b5f601f19601f8301169050919050565b5f6115e68261158a565b6115f08185611594565b93506116008185602086016115a4565b611609816115cc565b840191505092915050565b5f60e0820190506116275f83018a6114ef565b61163460208301896114ef565b61164160408301886114ef565b61164e606083018761143f565b61165b608083018661143f565b61166860a083018561157b565b81810360c083015261167a81846115dc565b905098975050505050505050565b5f6020828403121561169d5761169c6112c5565b5b5f6116aa84828501611313565b91505092915050565b7f7a65726f20616d6f756e740000000000000000000000000000000000000000005f82015250565b5f6116e7600b83611594565b91506116f2826116b3565b602082019050919050565b5f6020820190508181035f830152611714816116db565b9050919050565b7f646561646c696e652070617373656400000000000000000000000000000000005f82015250565b5f61174f600f83611594565b915061175a8261171b565b602082019050919050565b5f6020820190508181035f83015261177c81611743565b9050919050565b7f4e487b71000000000000000000000000000000000000000000000000000000005f52601160045260245ffd5b5f6117ba82611327565b91507fffffffffffffffffffffffffffffffffffffffffffffffffffffffffffffffff82036117ec576117eb611783565b5b600182019050919050565b7f4e487b71000000000000000000000000000000000000000000000000000000005f52604160045260245ffd5b7f4e487b71000000000000000000000000000000000000000000000000000000005f52602260045260245ffd5b5f600282049050600182168061186857607f821691505b60208210810361187b5761187a611824565b5b50919050565b5f819050815f5260205f209050919050565b5f6020601f8301049050919050565b5f82821b905092915050565b5f600883026118dd7fffffffffffffffffffffffffffffffffffffffffffffffffffffffffffffffff826118a2565b6118e786836118a2565b95508019841693508086168417925050509392505050565b5f819050919050565b5f61192261191d61191884611327565b6118ff565b611327565b9050919050565b5f819050919050565b61193b83611908565b61194f61194782611929565b8484546118ae565b825550505050565b5f90565b611963611957565b61196e818484611932565b505050565b5b81811015611991576119865f8261195b565b600181019050611974565b5050565b601f8211156119d6576119a781611881565b6119b084611893565b810160208510156119bf578190505b6119d36119cb85611893565b830182611973565b50505b505050565b5f82821c905092915050565b5f6119f65f19846008026119db565b1980831691505092915050565b5f611a0e83836119e7565b9150826002028217905092915050565b611a278261158a565b67ffffffffffffffff811115611a4057611a3f6117f7565b5b611a4a8254611851565b611a55828285611995565b5f60209050601f831160018114611a86575f8415611a74578287015190505b611a7e8582611a03565b865550611ae5565b601f198416611a9486611881565b5f5b82811015611abb57848901518255600182019150602085019450602081019050611a96565b86831015611ad85784890151611ad4601f8916826119e7565b8355505b6001600288020188555050505b505050505050565b828183375f83830152505050565b5f611b068385611594565b9350611b13838584611aed565b611b1c836115cc565b840190509392505050565b5f608082019050611b3a5f8301886114ef565b611b47602083018761143f565b611b54604083018661143f565b8181036060830152611b67818486611afb565b90509695505050505050565b7f6e6f7420636c61696d65640000000000000000000000000000000000000000005f82015250565b5f611ba7600b83611594565b9150611bb282611b73565b602082019050919050565b5f6020820190508181035f830152611bd481611b9b565b9050919050565b7f6e6f7420636c61696d65720000000000000000000000000000000000000000005f82015250565b5f611c0f600b83611594565b9150611c1a82611bdb565b602082019050919050565b5f6020820190508181035f830152611c3c81611c03565b9050919050565b5f6020820190508181035f830152611c5c818486611afb565b90509392505050565b7f6e6f74206f70656e0000000000000000000000000000000000000000000000005f82015250565b5f611c99600883611594565b9150611ca482611c65565b602082019050919050565b5f6020820190508181035f830152611cc681611c8d565b9050919050565b7f65787069726564000000000000000000000000000000000000000000000000005f82015250565b5f611d01600783611594565b9150611d0c82611ccd565b602082019050919050565b5f6020820190508181035f830152611d2e81611cf5565b9050919050565b7f6e6f74207375626d6974746564000000000000000000000000000000000000005f82015250565b5f611d69600d83611594565b9150611d7482611d35565b602082019050919050565b5f6020820190508181035f830152611d9681611d5d565b9050919050565b7f6e6f74206167656e7400000000000000000000000000000000000000000000005f82015250565b5f611dd1600983611594565b9150611ddc82611d9d565b602082019050919050565b5f6020820190508181035f830152611dfe81611dc5565b9050919050565b5f611e0f82611327565b9150611e1a83611327565b9250828202611e2881611327565b91508282048414831517611e3f57611e3e611783565b5b5092915050565b7f4e487b71000000000000000000000000000000000000000000000000000000005f52601260045260245ffd5b5f611e7d82611327565b9150611e8883611327565b925082611e9857611e97611e46565b5b828204905092915050565b5f611ead82611327565b9150611eb883611327565b9250828203905081811115611ed057611ecf611783565b5b92915050565b5f604082019050611ee95f83018561143f565b611ef6602083018461143f565b9392505050565b7f6e6f74206f776e657200000000000000000000000000000000000000000000005f82015250565b5f611f31600983611594565b9150611f3c82611efd565b602082019050919050565b5f6020820190508181035f830152611f5e81611f25565b9050919050565b7f66656520746f6f206869676800000000000000000000000000000000000000005f82015250565b5f611f99600c83611594565b9150611fa482611f65565b602082019050919050565b5f6020820190508181035f830152611fc681611f8d565b9050919050565b7f63616e6e6f742063616e63656c000000000000000000000000000000000000005f82015250565b5f612001600d83611594565b915061200c82611fcd565b602082019050919050565b5f6020820190508181035f83015261202e81611ff5565b9050919050565b7f7a65726f206164647265737300000000000000000000000000000000000000005f82015250565b5f612069600c83611594565b915061207482612035565b602082019050919050565b5f6020820190508181035f8301526120968161205d565b905091905056fea2646970667358221220bf160635dff1be461597f6b6f637871d63a165d060175bf72de8dd3afc45ef4364736f6c63430008180033","linkReferences":{}},"methodIdentifiers":{"bounties(uint256)":"dc2f8744","bountyCount()":"3e362c96","cancelBounty(uint256)":"e5e5dff1","claimBounty(uint256)":"44021ad7","createBounty(address,uint256,uint256,string)":"182797c9","feeBps()":"24a9d853","feeRecipient()":"46904840","owner()":"8da5cb5b","releaseBounty(uint256)":"5ecb8f0c","setFeeBps(uint256)":"72c27b62","setFeeRecipient(address)":"e74b981b","submitProof(uint256,string)":"2af00510"},"id":32}